:0410000053EF08F0B2
:06100800358220EF09F023
:101018003580D8CF17F0E8CF18F0E0CF19F0FACF25
:101028001AF0FBCF1BF0E9CF1CF0EACF1DF0E1CF9F
:101038001EF0E2CF1FF0D9CF20F0DACF21F0F3CFA6
:1010480022F0F4CF23F0F6CF24F0F7CF25F0F8CF35
:1010580026F0F5CF27F027C0F5FF26C0F8FF25C0FA
:10106800F7FF24C0F6FF23C0F4FF22C0F3FF21C01E
:10107800DAFF20C0D9FF1FC0E2FF1EC0E1FF1DC07C
:10108800EAFF1CC0E9FF1BC0FBFF1AC0FAFF19C02A
:10109800E0FF18C0E8FF17C0D8FF359010002CEF0C
:1010A8000AF000554E4B204552524F52004E4F20E9
:1010B800534F48004E4F20454F540000000E00018A
:1010C800A76F2FAE0BD02F1E2E1E2D1E2C6C000EC0
:1010D8002D222E222F22010E0001A76F2BAE0BD03E
:1010E8002B1E2A1E291E286C000E29222A222B229A
:1010F800010E0001A71B000E0001A86F000EA96FCA
:10110800000EAA6F000EAB6F2C502D102E102F1052
:10111800D8B42FD0010E0001A66F07D0D8902C3676
:101128002D362E362F360001A62B2FAEF7D700010D
:10113800D890A837A937AA37AB372C50285C2D5040
:1011480029582E502A582F502B58D8A00AD02C5046
:10115800285E2D50295A2E502A5A2F502B5A0001FA
:10116800A881D8902F322E322D322C320001A62F92
:10117800DED70001A7510001D8B409D00001AB1F88
:10118800AA1FA91FA86D000EA923AA23AB23A8C0D4
:1011980028F0A9C029F0AAC02AF0ABC02BF0120091
:1011A800000E0001B16F000EB06F30C02CF031C0DE
:1011B8002DF02E6A2F6A000E286E240E296EF40E6A
:1011C8002A6E000E2B6E62EC08F028C0ACF029C025
:1011D800ADF02AC0AEF02BC0AFF0ACC028F0ADC067
:1011E80029F0AEC02AF0AFC02BF0400E2C6E000ED6
:1011F8002D6E000E2E6E000E2F6E62EC08F0FF0EA4
:1012080028240001B06FFF0E29200001B16F000EE5
:101218000F015D6F949C948EB898B89AB8960001A7
:10122800B151B06EB0C0AFFFAC94AC98AC8AAB888B
:10123800AB8E9D8A9D981200FACF09F0FBCF0AF079
:10124800E9CF0BF0EACF0CF0E1CF0DF0E2CF0EF0D2
:10125800D9CF0FF0DACF10F0F3CF11F0F4CF12F0AE
:10126800F6CF13F0F7CF14F0F8CF15F0F5CF16F04E
:101278009EAA0BD032C001F033C002F0010E036EFB
:10128800040E046E67EC09F0346E16C0F5FF15C045
:10129800F8FF14C0F7FF13C0F6FF12C0F4FF11C027
:1012A800F3FF10C0DAFF0FC0D9FF0EC0E2FF0DC078
:1012B800E1FF0CC0EAFF0BC0E9FF0AC0FBFF09C051
:1012C800FAFF35921100000E076E07C008F008C03B
:1012D80006F025D09EAA23D001C0D9FF02C0DAFFAC
:1012E800AECFDFFF01C0D9FF02C0DAFF0350DE181E
:1012F800D8A406D00850D8A403D0010E086E0CD08C
:1013080001C0D9FF02C0DAFF0450DE18D8A404D007
:10131800010E076EF29E06D0062A014A022A450EE1
:101328000664D8D70850D8B405D00750D8B402D02E
:10133800065012000850D8A402D0FF0E1200075021
:10134800D8A402D0FE0E1200FD0E1200600E326EFE
:10135800000E336E250E316E800E306ED4EC08F020
:10136800F28CF28E3450800A7F0FD8A00BD032C096
:1013780028F033C029F0010E2A6E040E2B6EE7EC1C
:1013880009F01FD03428D8A407D0B50E286E100E47
:10139800296E13EC0AF015D0FE0E3418D8A407D025
:1013A800BC0E286E100E296E13EC0AF00AD0FD0E42
:1013B8003418D8A4D7D7AB0E286E100E296E13ECAC
:1013C8000AF0346ECFD7000E2D6E03D0284A292A92
:1013D8002D2A28C0D9FF29C0DAFF2A50DE18D8B430
:1013E8000CD0450E2D64F2D708D028C0D9FF29C0EB
:1013F800DAFFDF50AD6EACA2FED7284A292A2D2A83
:1014080028C0D9FF29C0DAFF2B50DE18D8B403D082
:10141800450E2D64EAD79E9AF28E000E12000BD06C
:1014280028C0F6FF29C0F7FF0800F5CFADFFACA232
:10143800FED7284A292A28C0F6FF29C0F7FF080046
:10144800F5500009D8A4ECD79E9AF28E000E12002F
:1014580000EE60F0460EEE6AE806FDE1346A35906B
:101468003592000EF86E100EF76E0001AAEF09F023
:020000040020DA
:08000000FFFFFFFFFFFFFFFF00
:020000040030CA
:0E00000000255F3FFFD385FF0FC00FE00F40CC
:00000001FF
