:041000004DEF08F0B8
:101008004182FACF06F0FBCF07F0E9CF08F0EACF2C
:1010180009F0E1CF0AF0E2CF0BF0D9CF0CF0DACF2C
:101028000DF0F3CF0EF0F4CF0FF0F6CF10F0F7CFAE
:1010380011F0F8CF12F0F5CF13F0F2BCA0A605D04E
:10104800A1A603D00AEC0BF006D0F2BC9DA603D0F3
:101058009EB64FEC08F013C0F5FF12C0F8FF11C0A0
:10106800F7FF10C0F6FF0FC0F4FF0EC0F3FF0DC06E
:10107800DAFF0CC0D9FF0BC0E2FF0AC0E1FF09C0CC
:10108800EAFF08C0E9FF07C0FBFF06C0FAFF41926C
:10109800110044EF0AF09E96C6AEF9D0C69E000E27
:1010A800346E20EE03F02D50D9262E50DA22DECFF2
:1010B80004F0DDCF05F004C0D9FF05C0DAFF010E4A
:1010C800DF6E000E2D6E000E2E6E120028B212007A
:1010D80026C02DF027C02EF026C0D9FF27C0DAFF82
:1010E800DF50336E20EE01F02650D9262750DA2241
:1010F800DECF2FF0DDCF30F0050E2626000E27229A
:101108003F0E261808E1000E2718D8A404D03A0E7E
:10111800266E000E276E28902450261804E12550CC
:101128002718D8B42882C580020E346E1200C582F2
:10113800020E346E1200C5AC05D02A2A040EABECA0
:101148000AF01200D8904030056E3F30046E04500B
:10115800C96E3FA003D00B0E346E1200030E346E1E
:101168001200C5AC05D02A2A040EABEC0AF0120016
:10117800C5823FC004F040C005F005C004F0056A10
:10118800060E0416000E0516F00E04103F6E0550EC
:10119800406E3F80010E316E020E346E1200310433
:1011A800D8B41AD02FC0D9FF30C0DAFFDECF3FF055
:1011B800DDCF40F020EE03F02F50D9263050DA2250
:1011C800DECF2BF0DDCF2CF020EE02F02F50D92609
:1011D8003050DA22DF50326E3FC0C9FF3FA003D043
:1011E800050E346E1200030E346E1200C5AC06D024
:1011F8002A2AC59C050EABEC0AF0120032063228EA
:10120800D8A40ED0050E2F26000E3022332E04D07F
:10121800000EABEC0AF01200C582020E346E12000A
:101228002BC0D9FF2CC0DAFFDF50C96E2B4A2C2AFD
:101238001200C5AC06D02A2A040EABEC0AF0C59CF5
:101248001200C586080E346E1200080E346EC5866C
:1012580012002BC0D9FF2CC0DAFFC9CFDFFF2B4A01
:101268002C2A010E325ED8B404D0C59A060E346E0C
:1012780003D0C58AE1EC0AF0C5881200000EABEC79
:101288000AF012002A2A060EABEC0AF012003450BB
:10129800000AD8B41BD7010AD8B449D7030AD8B46E
:1012A8007ED7010AD8B4A2D7070AD8B4E7D7010A6B
:1012B800D8B4BFD7030AD8B4C8D7010AD8B4DED780
:1012C8000F0AD8B4C6D7020AD8B435D7010AD8B499
:1012D80048D7D8D7F6EC0AF020EE7AF010EE60F096
:1012E800110EDBCFE3FFE806FCE200017269020E93
:1012F8000001796F600E0001736F000E0001746FBA
:10130800000E0001786F110E0001786501D043D0FE
:1013180000017851010DF35000017325D96EF45086
:1013280000017421DA6EDF500001776F000E0001B2
:10133800766F000E756F18D0770E1D6E000E1E6E3C
:10134800010E1F6E000E216E400E206E790E226E69
:10135800000E236E1FEC0AF0020E00017919D8B4B2
:10136800FBD70001754B762B00017905D8B40DD059
:10137800000179510001D8B408D00001765105E187
:10138800030E0001755DD8A0D7D7680EE82EFED7EA
:101398000001782BB8D7FFD7196E28B039D016C0FE
:1013A800D9FF17C0DAFF020EDF6E20EE01F02450DD
:1013B800D9262550DA2214C0DEFF15C0DDFF24C06F
:1013C800D9FF25C0DAFF19C0DFFF20EE03F0245053
:1013D800D9262550DA2216C0DEFF17C0DDFF050E1C
:1013E8002426000E25223F0E241808E1000E251899
:1013F800D8A404D03A0E246E000E256E28922450EC
:1014080026180CE125502718D8A408D0288006D023
:1014180016C0D9FF17C0DAFF010EDF6E16C0D9FF5C
:1014280017C0DAFF020EDE18D8A412003450D8A470
:10143800FDD79E86120028B01CD0350E146E000E03
:10144800156E1DC016F01EC017F01FC018F020C082
:1014580019F021C01AF089EC0AF0350E146E000E4E
:10146800156E22C016F023C017F0010ED0EC09F05B
:10147800120022C0D9FF23C0DAFF010EDF6E12006E
:10148800DA0EF66E150EF76E000EF86E00EE7AF0B4
:1014980010EE12F00900F5CFEEFFE550E150FAE149
:1014A8000001906B8F6B8E6B8D6B8C6B00EE24F054
:1014B8001D0EEE6AE806FDE141904192000EF86EBD
:1014C80000016EEF09F0000E8D6E000E8C6E000E9E
:1014D800896E000E8A6E000E8B6E070E966E9268ED
:1014E8009368C70E946E9568C40E0F015D6F3C0E2D
:1014F8000F015C6F0F015E69070E0F015F6F2F0E02
:101508000F015B6F8568F19E120019C01BF01AC0AD
:101518001CF0D8901B361C3614C0D9FF15C0DAFF52
:101528001BC0DEFF1CC0DDFF20EE02F01450D926E0
:101538001550DA2218C0DFFF20EE03F01450D92628
:101548001550DA2216C0DEFF17C0DDFF1200036E49
:10155800C58420EE03F02D50D9262E50DA22DE5015
:10156800DE10D8B410D020EE03F02D50D9262E501E
:10157800DA22DECF01F0DDCF02F001C0D9FF02C0D0
:10158800DAFF03C0DFFF000E346E12003A0E266E3B
:10159800000E276E3A0E246E000E256E28822890C3
:1015A800000E2A6E800EC76E280EC66E080ECB6E11
:1015B800030EC86E9E969D861200050E2F26000EFD
:1015C8003022332E03D0040E346E1200010E346E16
:1015D800120032123212381830103F1F30103212F7
:1015E8003010311108EC0BF067EC0AF0FFEC0AF050
:1015F800CAEC0AF01200100ED36E000ED26E000E66
:0E1608009B6E000EB56E1200D09E12001200F6
:020000040020DA
:08000000FFFFFFFFFFFFFFFF00
:020000040030CA
:0E00000020285F3CFFD385FF0FC00FE00F40AC
:00000001FF
