:041000004DEF08F0B8
:101008003682FACF28F0FBCF29F0E9CF2AF0EACFD1
:101018002BF0E1CF2CF0E2CF2DF0D9CF2EF0DACFA4
:101028002FF0F3CF30F0F4CF31F0F6CF32F0F7CF26
:1010380033F0F8CF34F0F5CF35F0F2BCA0A605D0E8
:10104800A1A603D081EC09F006D0F2BC9DA603D07E
:101058009EB64FEC08F035C0F5FF34C0F8FF33C03A
:10106800F7FF32C0F6FF31C0F4FF30C0F3FF2FC0E6
:10107800DAFF2EC0D9FF2DC0E2FF2CC0E1FF2BC044
:10108800EAFF2AC0E9FF29C0FBFF28C0FAFF369211
:1010980011005EEF09F09E96C6AEE9D0C69E000E1E
:1010A800116E000E0A6E000E0B6E120005B21200D1
:1010B80003C00AF004C00BF003C0D9FF04C0DAFF74
:1010C800DF50106E20EE01F00350D9260450DA22CA
:1010D800DECF0CF0DDCF0DF0060E0326000E042245
:1010E800240E031808E1000E0418D8A404D01E0E1C
:1010F800036E000E046E05900150031804E10250BF
:101108000418D8B40582C580020E116E1200C5827B
:10111800020E116E1200C5AC05D0072A040E7DEC34
:1011280009F01200D8902530276E2430266E2650FC
:10113800C96E24A003D00B0E116E1200030E116E9F
:101148001200C5AC05D0072A040E7DEC09F0120088
:10115800C58224C026F025C027F027C026F0276ABC
:10116800060E2616000E2716F00E2610246E27509F
:10117800256E2480010E0E6E020E116E12000E04F2
:10118800D8B41AD00CC0D9FF0DC0DAFFDECF24F0D6
:10119800DDCF25F020EE03F00C50D9260D50DA22D1
:1011A800DECF08F0DDCF09F020EE02F00C50D92692
:1011B8000D50DA22DF500F6E24C0C9FF24A003D0DF
:1011C800050E116E1200030E116E1200C5AC06D08A
:1011D800072AC59C050E7DEC09F012000F060F28A2
:1011E800D8A40ED0060E0C26000E0D22102E04D008
:1011F800000E7DEC09F01200C582020E116E12007D
:1012080008C0D9FF09C0DAFFDF50C96E084A092AA9
:101218001200C5AC06D0072A040E7DEC09F0C59C67
:101228001200C586080E116E1200080E116EC586D2
:10123800120008C0D9FF09C0DAFFC9CFDFFF084A8A
:10124800092A010E0F5ED8B404D0C59A060E116E95
:1012580003D0C58A6BEC09F0C5881200000E7DEC3E
:1012680009F01200072A060E7DEC09F01200115051
:10127800000AD8B41BD7010AD8B449D7030AD8B48E
:101288007ED7010AD8B4A2D7070AD8B4E7D7010A8B
:10129800D8B4BFD7030AD8B4C8D7010AD8B4DED7A0
:1012A8000F0AD8B4C6D7020AD8B435D7010AD8B4B9
:1012B80048D7D8D700EE01F0250EEE6AE806FDE122
:1012C80036903692000EF86E000177EF09F0060EA0
:1012D8000C26000E0D22102E03D0040E116E1200E3
:1012E800010E116E1200000E936E93CF5CFF8A6898
:0C12F800FFD7C584000E116E120012001A
:020000040020DA
:08000000FFFFFFFFFFFFFFFF00
:020000040030CA
:0E00000020285F3CFFD385FF0FC00FE00F40AC
:00000001FF
