:04100000AEEF3FF020
:107F5C000001E0EF3FF0C5849EB61200FDD7C5804E
:107F6C009EA6FED79E961200280EC66E000EC56EFB
:107F7C00CB86270EC86E800EC76E0F015C910F0169
:107F8C005C93938093821200046E04C001F0013A5A
:107F9C000F0E01160F0E011604C002F00F0E021682
:107FAC000238F00B0110036E04C0C9FF9EA6FED769
:107FBC00C5501200000E0F015E6F5ECF5CFF000E0D
:107FCC00956E939E8A9EA00E016E860E026E010E19
:107FDC00036E000E046EBAEC3FF0B5EC3FF07E0E73
:107FEC00CAEC3FF00F0ECAEC3FF0B1EC3FF0010EC3
:047FFC008C6EFDD7B3
:020000040020DA
:08000000FFFFFFFFFFFFFFFF00
:020000040030CA
:0E00000000255F3FFFD385FF0FC00FE00F40CC
:00000001FF
