:041000005CEF3FF072
:107EA800C580C5A01200FDD7C584C5A41200FDD7A2
:107EB800000EF86E000176EF3FF0016E01C0C9FFB9
:107EC800C7A41200FDD7280EC66E000EC56E270E79
:107ED800C86E800EC76E0F015C910F015C93938092
:107EE80093821200410E0B6E67EC3FF054EC3FF0AA
:107EF80085EC3FF058EC3FF00F015C9993988A8825
:107F0800FBD77E0E61EC3FF0010E066E280EB9EC31
:107F18003FF0010E066E010EB9EC3FF0010E066E41
:107F28000F0EB9EC3FF0010E066E020EB9EC3FF0F1
:107F38001200046E000E036E070E056E05BE13D008
:107F480005C001F004C002F0800E0216012A02D01A
:107F5800D8900232012EFCD7025003120450042498
:107F6800046E0506EBD703501200076E000E086E6C
:107F7800000E096E000E0A6E05D0900E01D0100E8C
:107F8800086E07D00650000AD8B4F7D7010AD8B44B
:107F9800F6D707380F0B0F0B08103009096E095078
:107FA8009DEC3FF00A6E0A5061EC3FF007380F0B6A
:107FB8000F0B08101009096E09509DEC3FF00A6E6E
:107FC8000A5061EC3FF007500F0B08103009096E9A
:107FD80009509DEC3FF00A6E0A5061EC3FF00750E3
:107FE8000F0B08101009096E09509DEC3FF00A6E3E
:087FF8000A5061EC3FF0120099
:020000040020DA
:08000000FFFFFFFFFFFFFFFF00
:020000040030CA
:0E00000000255F3FFFD385FF0FC00FE00F40CC
:00000001FF
