:04100000ADEF3FF021
:107F5A000001D3EF3FF0C580C5A01200FDD7C5844C
:107F6A00C5A41200FDD7066E000E076E0650E4EC9B
:107F7A003FF0076E07C0C9FFC7A41200FDD7280E3D
:107F8A00C66E000EC56E270EC86E800EC76E0F0134
:107F9A005C910F015C93938093821200C4EC3FF0D2
:107FAA00B0EC3FF07E0EB8EC3FF0130EB8EC3FF0A9
:107FBA00B4EC3FF00F015C9993988A88FBD7046E62
:107FCA00000E036E070E056E05BE13D005C001F044
:107FDA0004C002F0800E0216012A02D0D8900232A2
:107FEA00012EFCD70250031204500424046E050625
:067FFA00EBD7035012005A
:020000040020DA
:08000000FFFFFFFFFFFFFFFF00
:020000040030CA
:0E00000000255F3FFFD385FF0FC00FE00F40CC
:00000001FF
