:0410000062EF3FF06C
:107EC400000188EF3FF0C580C5A01200FDD7C5842E
:107ED400C5A41200FDD7066E000E076E0650B0EC66
:107EE4003FF0076E07C0C9FFC7A41200FDD7280ED4
:107EF400C66E000EC56E270EC86E800EC76E0F01CB
:107F04005C910F015C9393809382120079EC3FF0B3
:107F140065EC3FF0CCEC3FF097EC3FF069EC3FF0C0
:107F24000F015C9993988A88FBD7300E6DEC3FF073
:107F3400100E6DEC3FF0310E6DEC3FF0110E6DEC58
:107F44003FF0300E6DEC3FF0100E6DEC3FF0320E52
:107F54006DEC3FF0120E6DEC3FF01200046E000E5B
:107F6400036E070E056E05BE13D005C001F004C0F4
:107F740002F0800E0216012A02D0D8900232012E9D
:107F8400FCD70250031204500424046E0506EBD7F8
:107F9400035012007E0E6DEC3FF0320E6DEC3FF09C
:107FA400120E6DEC3FF0380E6DEC3FF0180E6DECD8
:107FB4003FF0300E6DEC3FF0100E6DEC3FF0310EE3
:107FC4006DEC3FF0110E6DEC3FF0300E6DEC3FF0B8
:107FD400100E6DEC3FF03F0E6DEC3FF01F0E6DEC9C
:107FE4003FF0300E6DEC3FF0100E6DEC3FF0320EB2
:0C7FF4006DEC3FF0120E6DEC3FF012003F
:020000040020DA
:08000000FFFFFFFFFFFFFFFF00
:020000040030CA
:0E00000000255F3FFFD385FF0FC00FE00F40CC
:00000001FF
