:0410000041EF08F0C4
:101008002682FACF01F0FBCF02F0E9CF03F0EACF56
:1010180004F0E1CF05F0E2CF06F0D9CF07F0DACF40
:1010280008F0F3CF09F0F4CF0AF0F6CF0BF0F7CFC2
:101038000CF0F8CF0DF0F5CF0EF09EBAF29C0EC072
:10104800F5FF0DC0F8FF0CC0F7FF0BC0F6FF0AC094
:10105800F4FF09C0F3FF08C0DAFF07C0D9FF06C0D4
:10106800E2FF05C0E1FF04C0EAFF03C0E9FF02C0D8
:10107800FBFF01C0FAFF269211000CEF09F00045B2
:1010880052520000000E186E16AE0AD0161E151E1B
:10109800141E136C000E142215221622010E186E4F
:1010A80012AE0AD0121E111E101E0F6C000E102256
:1010B80011221222010E181A000E196E000E1A6E55
:1010C800000E1B6E000E1C6E135014101510161017
:1010D800D8B42AD0010E176E06D0D890133614361D
:1010E80015361636172A16AEF8D7D89019361A3686
:1010F8001B361C3613500F5C1450105815501158DD
:1011080016501258D8A009D013500F5E1450105A18
:101118001550115A1650125A1980D8901632153295
:1011280014321332172EE1D71850D8B408D01C1E29
:101138001B1E1A1E196C000E1A221B221C2219C013
:101148000FF01AC010F01BC011F01CC012F01200F2
:10115800000E246E000E236E1DC013F01EC014F086
:10116800156A166A000E0F6E240E106EF40E116EBC
:10117800000E126E46EC08F00FC01FF010C020F0F1
:1011880011C021F012C022F01FC00FF020C010F0D3
:1011980021C011F022C012F0400E136E000E146E22
:1011A800000E156E000E166E46EC08F0FF0E0F24AA
:1011B800236EFF0E1020246E000E0F015D6F949CAD
:1011C800948EB898B89AB8962450B06E23C0AFFFE2
:1011D800AC94AC98AC8AAB88AB8E9D8A9D98120073
:1011E800250E1E6E800E1D6EACEC08F01AEC09F090
:1011F800F28CF28EF2BCFED7C282C2B2FED7C450C5
:1012080024EC09F0C35024EC09F09E9AF28CF2D732
:1012180000EE60F0460EEE6AE806FDE1256A2690CB
:101228002692000EF86E0001F4EF08F00F015B81C2
:101238009280B50EC06E800EC16E010EC26E120095
:0E1248000F6E0FC0ADFFACA2FED79E9A120033
:020000040020DA
:08000000FFFFFFFFFFFFFFFF00
:020000040030CA
:0E00000000255F3FFFD385FF0FC00FE00F40CC
:00000001FF
