:0410000053EF08F0B2
:061008004B821AEF0DF00F
:101018004B80D8CF60F0E8CF61F0E0CF62F0FACF34
:1010280063F0FBCF64F0E9CF65F0EACF66F0E1CF7B
:1010380067F0E2CF68F0D9CF69F0DACF6AF0F3CF82
:101048006BF0F4CF6CF0F6CF6DF0F7CF6EF0F8CF11
:101058006FF0F5CF70F070C0F5FF6FC0F8FF6EC08D
:10106800F7FF6DC0F6FF6CC0F4FF6BC0F3FF6AC0FA
:10107800DAFF69C0D9FF68C0E2FF67C0E1FF66C058
:10108800EAFF65C0E9FF64C0FBFF63C0FAFF62C006
:10109800E0FF61C0E8FF60C0D8FF4B90100058EF38
:1010A80010F090C094F00001956B966B00018F359D
:1010B8000001943701E39581000194510001996F73
:1010C80093C094F00001956B966B00019235000176
:1010D800943701E39581000194510001986F000154
:1010E80099510001D8B411D0000198510001995DBF
:1010F800D8B012D0000199510008000198250001CC
:10110800946F180E0001946507D091C08EF092C0BC
:101118008FF093C090F01200000198510001D8B4EC
:1011280011D0000199510001985DD8B012D000018A
:1011380098510008000199250001946F180E0001CC
:10114800946507D08EC08EF08FC08FF090C090F05D
:101158001200060E0001976F000190AF02D0000147
:10116800978F000193AF02D00001978D00018F8FF8
:10117800FF0E00018E17FF0E00018F17000E0001F1
:1011880090170001928FFF0E00019117FF0E0001CA
:101198009217000E00019317000198510001995D04
:1011A800D8B025D00001D8909137923793370001F5
:1011B80098070001995100019819D8B411D000017D
:1011C800970797C094F0070E00019417D8B408D079
:1011D800E9D70001D89090338F338E330001992BD3
:1011E8000001985100019919D8B42BD0F2D7000109
:1011F80099510001985DD8B024D00001D8908E375D
:101208008F3790370001990700019951000198190B
:10121800D8B411D00001970797C094F0070E0001C9
:101228009417D8B408D0E9D70001D89093339233F3
:1012380091330001982B0001985100019919D8A405
:10124800F3D7000197AF12D0FF0E00018E1BFF0EDF
:1012580000018F1BFF0E0001901B010E00018E275D
:10126800000E00018F23000E00019023000197ADAE
:1012780012D0FF0E0001911BFF0E0001921BFF0E02
:101288000001931B010E00019127000E000192231B
:10129800000E00019323000E0001976F00018E518C
:1012A8000001912700018F51000192230001905104
:1012B80000019323000193AF15D0FF0E0001911B8D
:1012C800FF0E0001921BFF0E0001931B010E00018F
:1012D8009127000E00019223000E00019323010EB6
:1012E8000001976F91C071F092C072F093C073F0D3
:1012F80099C074F097C075F0A7EC0BF071C08EF030
:1013080072C08FF073C090F0120020C024F0256ADC
:10131800266A1F34243601E325802450296E23C011
:1013280024F0256A266A2234243601E325802450D5
:10133800286E2950D8B40BD02850295CD8B00ED0CC
:10134800295000082824246E180E246407D021C0D0
:101358001EF022C01FF023C020F012002850D8B47D
:101368000BD02950285CD8B00ED02850000829246A
:10137800246E180E246407D01EC01EF01FC01FF074
:1013880020C020F01200060E276E20BE278E23BE36
:10139800278C1F8EFF0E1E16FF0E1F16000E20161E
:1013A800228EFF0E2116FF0E2216000E231628503D
:1013B800295CD8B01BD0D89021362236233628068F
:1013C80029502818D8B40DD0270627C024F0070EB6
:1013D8002416D8B406D0EFD7D89020321F321E3248
:1013E800292A28502918D8B41FD0F6D72950285CA4
:1013F800D8B01AD0D8901E361F3620362906295064
:101408002818D8B40DD0270627C024F0070E2416B4
:10141800D8B406D0EFD7D890233222322132282AE6
:1014280028502918D8A4F7D727AE0CD0FF0E1E1ABB
:10143800FF0E1F1AFF0E201A010E1E26000E1F2275
:10144800000E202227AC0CD0FF0E211AFF0E221A04
:10145800FF0E231A010E2126000E2222000E23223F
:10146800000E276E1E5021261F50222220502322B4
:1014780023AE0ED0FF0E211AFF0E221AFF0E231ADA
:10148800010E2126000E2222000E2322010E276EB5
:1014980021C001F022C002F023C003F029C004F0EB
:1014A80027C005F078EC0DF001C01EF002C01FF057
:1014B80003C020F012007EC082F00001836B846BB1
:1014C80000017D350001823701E3838100018251EB
:1014D8000001896F00018951D8A40AD0000E0001CB
:1014E8007C6F000E00017D6F000E00017E6F120000
:1014F80081C082F00001836B846B0001803500019C
:10150800823701E383810001825100018A6F000163
:101518008A51D8A40AD0000E00017C6F000E000189
:101528007D6F000E00017E6F1200000E0001866FB5
:10153800000E0001876F000E0001886F00018A51BC
:10154800890F0001895F7EC08AF000018151000186
:101558008A1B800E00018A1700017D8FFF0E000193
:101568007C17FF0E00017D17000E00017E17000199
:10157800808FFF0E00017F17FF0E00018017000EFD
:1015880000018117180E0001856F0001D890863779
:101598008737883700017F5100017C5D0001805149
:1015A80000017D590001815100017E59D8A00ED05B
:1015B80000017F5100017C5F0001805100017D5BCB
:1015C8000001815100017E5B000186810001D890F5
:1015D8007C377D377E370001852FD7D786C071F0DD
:1015E80087C072F088C073F089C074F08AC075F043
:1015F800A7EC0BF071C07CF072C07DF073C07EF078
:1016080012009CC09EF000019F6BA06B00019B35EF
:1016180000019E3701E39F8100019E510001A86FE0
:101628000001A851D8A40AD0000E00019A6F000E3C
:101638009B6F000E9C6F000E9D6F1200170E00012D
:101648009E6F9AC09FF09BC0A0F09CC0A1F00001C3
:101658009E290001A26F05D00001D890A133A033C4
:101668009F330001A22FF8D700019F510001A36FFB
:1016780000019B8FFF0E00019A17FF0E00019B17B8
:10168800000E00019C1700019A510001A46F00018F
:101698009B510001A56F00019C510001A66F00013C
:1016A800A76B8E0E0001A85F0001A8AF1AD0000139
:1016B800A851800A8F0FD8B00AD0000E00019A6F87
:1016C800000E9B6F000E9C6F000E9D6F12000001B4
:1016D800D890A733A633A533A4330001A83FF7D782
:1016E8001BD0170E0001A86512D0000E00019A6FDA
:1016F800000E9B6F000E9C6F000E9D6F1200000184
:10170800D890A437A537A637A7370001A807000146
:10171800A8510001D8A4F3D70001A3510001D8B4FF
:1017280009D00001A71FA61FA51FA46D000EA523A1
:10173800A623A723A4C09AF0A5C09BF0A6C09CF03E
:10174800A7C09DF01200000174510001D8B408D060
:10175800000171510001721100017311D8A411D058
:10176800000E0001716F000E0001726F000E000183
:10177800736F12000001742B0001D8907333723319
:101788007133000E000171150001766F000E000123
:1017980072150001776FFE0E000173150001786F56
:1017A800000176510001771100017811D8B411D0E9
:1017B800E1D70001742B010E00017127000E000112
:1017C8007223000E000173230001D8907333723323
:1017D8007133000E000171150001766F000E0001D3
:1017E80072150001776FFF0E000173150001786F05
:1017F800000176510001771100017811D8B408D0A2
:10180800D8D7000174070001D89071377237733741
:10181800000172BF04D0020E00017461F2D700010A
:1018280074B102D00001729F0001D8907433000196
:10183800745100017313000175510001D8B402D02E
:101848000001738F71C071F072C072F073C073F0D1
:1018580012002CC02EF02F6A306A2B342E3601E38A
:101868002F802E50386E3850D8A409D0000E2A6E1A
:10187800000E2B6E000E2C6E000E2D6E1200170E31
:101888002E6E2AC02FF02BC030F02CC031F02E283D
:10189800326E04D0D890313230322F32322EFAD70D
:1018A8002F50336E2B8EFF0E2A16FF0E2B16000EAE
:1018B8002C162A50346E2B50356E2C50366E376AE3
:1018C8008E0E385E38AE16D03850800A8F0FD8B0DA
:1018D80009D0000E2A6E000E2B6E000E2C6E000E24
:1018E8002D6E1200D8903732363235323432383EC7
:1018F800F9D715D0170E38640FD0000E2A6E000ED7
:101908002B6E000E2C6E000E2D6E1200D890343601
:1019180035363636373638063850D8A4F7D73350E8
:10192800D8B408D0371E361E351E346C000E35224A
:101938003622372234C02AF035C02BF036C02CF0BE
:1019480037C02DF012000EC012F0136A146A0D345D
:10195800123601E313801250196E1950D8A407D01B
:10196800000E0C6E000E0D6E000E0E6E120011C0F1
:1019780012F0136A146A1034123601E313801250FD
:101988001A6E1A50D8A407D0000E0C6E000E0D6EF9
:10199800000E0E6E1200000E166E000E176E000E70
:1019A800186E1A50890F195E0EC01AF011501A1AC3
:1019B800800E1A160D8EFF0E0C16FF0E0D16000E59
:1019C8000E16108EFF0E0F16FF0E1016000E1116B3
:1019D800180E156ED8901636173618360F500C5C40
:1019E80010500D5811500E58D8A007D00F500C5E4B
:1019F80010500D5A11500E5A1680D8900C360D36CC
:101A08000E36152EE7D716C001F017C002F018C021
:101A180003F019C004F01AC005F078EC0DF001C00D
:101A28000CF002C00DF003C00EF01200FACF3DF02A
:101A3800FBCF3EF0E9CF3FF0EACF40F0E1CF41F0F5
:101A4800E2CF42F0D9CF43F0DACF44F0F3CF45F0FC
:101A5800F4CF46F0F6CF47F0F7CF48F0F8CF49F08B
:101A6800F5CF4AF09EA00AD0CD909E90010E8A1A1A
:101A7800000E3A6E190E396E06EC0FF0A1A20AD0CC
:101A8800B190A192020E8A1A000E3A6E640E396E57
:101A9800BFEC0EF0F2A40AD0D59EF294040E8A1A76
:101AA800010E3A6E2C0E396E4DEC0FF04AC0F5FF60
:101AB80049C0F8FF48C0F7FF47C0F6FF46C0F4FF2B
:101AC80045C0F3FF44C0DAFF43C0D9FF42C0E2FF7C
:101AD80041C0E1FF40C0EAFF3FC0E9FF3EC0FBFF55
:101AE8003DC0FAFF4B9211000450D8B405D0015004
:101AF80002100310D8A40CD0000E016E000E026E66
:101B0800000E036E1200042AD8900332023201320A
:101B1800000E0114066E000E0214076EFE0E03146A
:101B2800086E065007100810D8B40CD0ECD7042A59
:101B3800010E0126000E0222000E0322D890033265
:101B480002320132000E0114066E000E0214076EF6
:101B5800FF0E0314086E065007100810D8B406D0FC
:101B6800E6D70406D89001360236033602BE03D003
:101B7800020E0460F6D704A0029ED89004320450E6
:101B880003120550D8A4038E01C001F002C002F070
:101B980003C003F012000001AA5105E1830E000101
:101BA800A95DD8A005D0000EB36E000EB26E41D06C
:101BB800000E0001916F800E0001926F470E000128
:101BC800936F120E00017F6F030E0001806F3B0EB2
:101BD8000001816FA9C079F0AAC07AF00AEC10F070
:101BE80079C07CF07AC07DF07BC07EF05FEC0AF0B3
:101BF8007CC08BF07DC08CF07EC08DF0C4EC0FF003
:101C08008BC08EF08CC08FF08DC090F055EC08F032
:101C18008EC09AF08FC09BF090C09CF005EC0BF042
:101C28009AC0ABF09BC0ACF00001AC51B36EABC036
:101C3800B2FFB18012000001AA5105E1830E000134
:101C4800A95DD8A005D0000ECF6E000ECE6E41D093
:101C5800000E0001916F800E0001926F470E000187
:101C6800936F120E00017F6F030E0001806F3B0E11
:101C78000001816FA9C079F0AAC07AF00AEC10F0CF
:101C880079C07CF07AC07DF07BC07EF05FEC0AF012
:101C98007CC08BF07DC08CF07EC08DF0C4EC0FF062
:101CA8008BC08EF08CC08FF08DC090F055EC08F092
:101CB8008EC09AF08FC09BF090C09CF005EC0BF0A2
:101CC8009AC0ABF09BC0ACF00001AC51CF6EABC07A
:101CD800CEFFCD801200A10E0001A95D0F0E0001FC
:101CE800AA59D8A005D0000ED76E000ED66E41D0E6
:101CF800000E0001916F800E0001926F470E0001E7
:101D0800936F120E00017F6F830E0001806F3D0EEE
:101D18000001816FA9C079F0AAC07AF00AEC10F02E
:101D280079C07CF07AC07DF07BC07EF05FEC0AF071
:101D38007CC08BF07DC08CF07EC08DF0C4EC0FF0C1
:101D48008BC08EF08CC08FF08DC090F055EC08F0F1
:101D58008EC09AF08FC09BF090C09CF005EC0BF001
:101D68009AC0ABF09BC0ACF00001AC51D76EABC0D1
:101D7800D6FFD58E12003A5004E1830E395CD8A004
:101D880005D0000EB36E000EB26E3AD0000E216E72
:101D9800800E226E470E236E120E0F6E030E106E0B
:101DA8003B0E116E39C009F03AC00AF034EC10F05D
:101DB80009C00CF00AC00DF00BC00EF0A7EC0CF037
:101DC8000CC01BF00DC01CF00EC01DF046EC10F04E
:101DD8001BC01EF01CC01FF01DC020F089EC09F0CC
:101DE8001EC02AF01FC02BF020C02CF02DEC0CF0E8
:101DF8002AC03BF02BC03CF03C50B36E3BC0B2FF56
:101E0800B18012003A5004E1830E395CD8A005D0A5
:101E1800000ECF6E000ECE6E3AD0000E216E800EF0
:101E2800226E470E236E120E0F6E030E106E3B0EBF
:101E3800116E39C009F03AC00AF034EC10F009C04C
:101E48000CF00AC00DF00BC00EF0A7EC0CF00CC0A3
:101E58001BF00DC01CF00EC01DF046EC10F01BC0AE
:101E68001EF01CC01FF01DC020F089EC09F01EC038
:101E78002AF01FC02BF020C02CF02DEC0CF02AC04B
:101E88003BF02BC03CF03C50CF6E3BC0CEFFCD802A
:101E98001200A10E395C0F0E3A58D8A005D0000EDA
:101EA800D76E000ED66E3AD0000E216E800E226ECE
:101EB800470E236E120E0F6E830E106E3D0E116EBE
:101EC80039C009F03AC00AF034EC10F009C00CF03F
:101ED8000AC00DF00BC00EF0A7EC0CF00CC01BF004
:101EE8000DC01CF00EC01DF046EC10F01BC01EF01B
:101EF8001CC01FF01DC020F089EC09F01EC02AF09C
:101F08001FC02BF020C02CF02DEC0CF02AC03BF0A9
:101F18002BC03CF03C50D76E3BC0D6FFD58E12008C
:101F2800000E8A6E8ACF93FF93CF5CFFF28CF28EFD
:101F3800000E0001716F010E1FEC10F0000E000181
:101F4800716F010EF3EC0FF0000E0001716F010EBE
:101F5800DCEC0FF0010E0001AA6F2C0EA96F6FECDC
:101F68000EF0000E0001AA6F190EA96F1FEC0EF0FB
:101F7800000E0001AA6F640EA96FCFEC0DF0FFD719
:101F880000018B5100018C1100018D11D8B409D0CA
:101F9800000E00018B1B000E00018C1B800E00013F
:101FA8008D1B8BC08BF08CC08CF08DC08DF0120017
:101FB8000001726F000172510001D8B402D0A082F2
:101FC80001D0A092320EB16E000171510001D8B457
:101FD80003D0B18EB19C1200B19EB19C12000001D9
:101FE800726F000172510001D8B402D09D8001D0F7
:101FF8009D90320ECD6E000171510001D8B403D00E
:10200800CD8ECD9C1200CD9ECD9C120079C071F072
:102018007AC072F00001736B8E0E0001746F000EAF
:102028000001756FA7EC0BF071C079F072C07AF0FF
:1020380073C07BF012000001726F00017251000141
:10204800D8B402D0F28A01D0F29A070ED56E0001F8
:1020580071510001D8B402D0D58A1200D59A120065
:1020680009C001F00AC002F0036A8E0E046E000E69
:10207800056E78EC0DF001C009F002C00AF003C04B
:102088000BF012001B501C101D10D8B406D0000E07
:102098001B1A000E1C1A800E1D1A1BC01BF01CC038
:1020A8001CF01DC01DF012004B904B92000194EFE4
:0220B8000FF027
:020000040020DA
:08000000FFFFFFFFFFFFFFFF00
:020000040030CA
:0E00000000255F3FFFD385FF0FC00FE00F40CC
:00000001FF
