:0410000098EF3CF039
:1078BE00F294D59E12009E90CD901200A192B1909E
:1078CE001200016EF29A0138E846E00B0709D56EF8
:1078DE0012005FEC3CF04250D76E41C0D6FFD58E01
:1078EE001200016E9D900140E842C00B3209CD6E30
:1078FE00120062EC3CF04050CF6E3FC0CEFFCD8008
:10790E001200016EA0920140E842C00B3209B16E26
:10791E00120065EC3CF03E50B36E3DC0B2FFB1803C
:10792E001200426A416A406A3F6A3E6A3D6A00013D
:10793E00C5EF3CF01B501C101D10D8B406D0000E25
:10794E001B1A000E1C1A800E1D1A1BC01BF01CC029
:10795E001CF01DC01DF0120009C001F00AC002F09B
:10796E00036A8E0E046E000E056EE6EC3DF001C04D
:10797E0009F002C00AF003C00BF01200000E8A6E6E
:10798E008ACF93FF93CF5CFF000E68EC3CF0000EA5
:10799E0078EC3CF0000E88EC3CF0010E3A6E2C0EAA
:1079AE00396EF9EC3CF0000E3A6E190E396E48EC59
:1079BE003DF0000E3A6E640E396E97EC3DF09EA0CF
:1079CE0004D0010E8A1A80EC3CF0A1A204D0020E63
:1079DE008A1A90EC3CF0F2A4F2D7040E8A1A70ECDC
:1079EE003CF0EDD7620E395C100E3A58D8A009D093
:1079FE00000E426E000E416E000ED76E000ED66E59
:107A0E003ED0000E216E800E226E470E236E120E99
:107A1E000F6E830E106E3D0E116E39C009F03AC016
:107A2E000AF0B3EC3CF009C00CF00AC00DF00BC02C
:107A3E000EF03DEC3EF00CC01BF00DC01CF00EC065
:107A4E001DF0A1EC3CF01BC01EF01CC01FF01DC0B1
:107A5E0020F02AEC3FF01EC02AF01FC02BF020C0F1
:107A6E002CF0B0EC3EF02AC03BF02BC03CF03BC0FB
:107A7E0041F03CC042F03C50D76E3BC0D6FFD58E95
:107A8E0012003A5004E1840E395CD8A009D0000EE1
:107A9E00406E000E3F6E000ECF6E000ECE6E3ED0CC
:107AAE00000E216E800E226E470E236E120E0F6E8A
:107ABE00030E106E3B0E116E39C009F03AC00AF07B
:107ACE00B3EC3CF009C00CF00AC00DF00BC00EF088
:107ADE003DEC3EF00CC01BF00DC01CF00EC01DF0B6
:107AEE00A1EC3CF01BC01EF01CC01FF01DC020F00E
:107AFE002AEC3FF01EC02AF01FC02BF020C02CF045
:107B0E00B0EC3EF02AC03BF02BC03CF03BC03FF047
:107B1E003CC040F03C50CF6E3BC0CEFFCD8012003B
:107B2E003A5004E1840E395CD8A009D0000E3E6EA6
:107B3E00000E3D6E000EB36E000EB26E3ED0000E05
:107B4E00216E800E226E470E236E120E0F6E030EE6
:107B5E00106E3B0E116E39C009F03AC00AF0B3EC4C
:107B6E003CF009C00CF00AC00DF00BC00EF03DEC5D
:107B7E003EF00CC01BF00DC01CF00EC01DF0A1ECB1
:107B8E003CF01BC01EF01CC01FF01DC020F02AECE4
:107B9E003FF01EC02AF01FC02BF020C02CF0B0EC1E
:107BAE003EF02AC03BF02BC03CF03BC03DF03CC049
:107BBE003EF03C50B36E3BC0B2FFB1801200045099
:107BCE00D8B405D0015002100310D8A40CD0000E6A
:107BDE00016E000E026E000E036E1200042AD89083
:107BEE00033202320132000E0114066E000E021430
:107BFE00076EFE0E0314086E065007100810D8B458
:107C0E000CD0ECD7042A010E0126000E0222000E23
:107C1E000322D890033202320132000E0114066E96
:107C2E00000E0214076EFF0E0314086E06500710A6
:107C3E000810D8B406D0E6D70406D890013602361E
:107C4E00033602BE03D0020E0460F6D704A0029ED5
:107C5E00D8900432045003120550D8A4038E01C0EC
:107C6E0001F002C002F003C003F012000EC012F0C9
:107C7E00136A146A0D34123601E313801250196E12
:107C8E001950D8A407D0000E0C6E000E0D6E000E0B
:107C9E000E6E120011C012F0136A146A10341236EE
:107CAE0001E3138012501A6E1A50D8A407D0000E9A
:107CBE000C6E000E0D6E000E0E6E1200000E166E85
:107CCE00000E176E000E186E1A50890F195E0EC038
:107CDE001AF011501A1A800E1A160D8EFF0E0C166F
:107CEE00FF0E0D16000E0E16108EFF0E0F16FF0E47
:107CFE001016000E1116180E156ED8901636173671
:107D0E0018360F500C5C10500D5811500E58D8A04C
:107D1E0007D00F500C5E10500D5A11500E5A16808F
:107D2E00D8900C360D360E36152EE7D716C001F04C
:107D3E0017C002F018C003F019C004F01AC005F005
:107D4E00E6EC3DF001C00CF002C00DF003C00EF0E9
:107D5E0012002CC02EF02F6A306A2B342E3601E31F
:107D6E002F802E50386E3850D8A409D0000E2A6EAF
:107D7E00000E2B6E000E2C6E000E2D6E1200170EC6
:107D8E002E6E2AC02FF02BC030F02CC031F02E28D2
:107D9E00326E04D0D890313230322F32322EFAD7A2
:107DAE002F50336E2B8EFF0E2A16FF0E2B16000E43
:107DBE002C162A50346E2B50356E2C50366E376A78
:107DCE008E0E385E38AE16D03850800A8F0FD8B06F
:107DDE0009D0000E2A6E000E2B6E000E2C6E000EB9
:107DEE002D6E1200D8903732363235323432383E5C
:107DFE00F9D715D0170E38640FD0000E2A6E000E6C
:107E0E002B6E000E2C6E000E2D6E1200D890343696
:107E1E0035363636373638063850D8A4F7D733507D
:107E2E00D8B408D0371E361E351E346C000E3522DF
:107E3E003622372234C02AF035C02BF036C02CF053
:107E4E0037C02DF0120020C024F0256A266A1F3498
:107E5E00243601E325802450296E23C024F0256AA0
:107E6E00266A2234243601E325802450286E2950B8
:107E7E00D8B40BD02850295CD8B00ED029500008A9
:107E8E002824246E180E246407D021C01EF022C0B0
:107E9E001FF023C020F012002850D8B40BD0295068
:107EAE00285CD8B00ED0285000082924246E180E55
:107EBE00246407D01EC01EF01FC01FF020C020F08B
:107ECE001200060E276E20BE278E23BE278C1F8E15
:107EDE00FF0E1E16FF0E1F16000E2016228EFF0E10
:107EEE002116FF0E2216000E23162850295CD8B03C
:107EFE001BD0D89021362236233628062950281832
:107F0E00D8B40DD0270627C024F0070E2416D8B4F7
:107F1E0006D0EFD7D89020321F321E32292A285091
:107F2E002918D8B41FD0F6D72950285CD8B01AD04B
:107F3E00D8901E361F362036290629502818D8B458
:107F4E000DD0270627C024F0070E2416D8B406D06D
:107F5E00EFD7D890233222322132282A28502918DE
:107F6E00D8A4F7D727AE0CD0FF0E1E1AFF0E1F1A7D
:107F7E00FF0E201A010E1E26000E1F22000E2022BA
:107F8E0027AC0CD0FF0E211AFF0E221AFF0E231A59
:107F9E00010E2126000E2222000E2322000E276E35
:107FAE001E5021261F5022222050232223AE0ED0F7
:107FBE00FF0E211AFF0E221AFF0E231A010E212682
:107FCE00000E2222000E2322010E276E21C001F088
:107FDE0022C002F023C003F029C004F027C005F030
:107FEE00E6EC3DF001C01EF002C01FF003C020F011
:027FFE0012006F
:020000040020DA
:08000000FFFFFFFFFFFFFFFF00
:020000040030CA
:0E00000000255F3FFFD385FF0FC00FE00F40CC
:00000001FF
