:0410000063EF08F0A2
:101008004B82FACF3DF0FBCF3EF0E9CF3FF0EACF7D
:1010180040F0E1CF41F0E2CF42F0D9CF43F0DACF50
:1010280044F0F3CF45F0F4CF46F0F6CF47F0F7CFD2
:1010380048F0F8CF49F0F5CF4AF09EA00AD0CD90FD
:101048009E90010E8A1A000E3A6E190E396EB8EC8F
:101058000EF0A1A20AD0B190A192020E8A1A000E37
:101068003A6E640E396E71EC0EF0F2A40AD0D59E79
:10107800F294040E8A1A010E3A6E2C0E396EFFECA9
:101088000EF04AC0F5FF49C0F8FF48C0F7FF47C057
:10109800F6FF46C0F4FF45C0F3FF44C0DAFF43C083
:1010A800D9FF42C0E2FF41C0E1FF40C0EAFF3FC0B4
:1010B800E9FF3EC0FBFF3DC0FAFF4B921100EFEF86
:1010C8000FF07FC083F00001846B856B00017E35D3
:1010D8000001833701E38481000183510001886F97
:1010E80082C083F00001846B856B000181350001AB
:1010F800833701E38481000183510001876F000178
:1011080088510001D8B411D0000187510001885DD1
:10111800D8B012D0000188510008000187250001CD
:10112800836F180E0001836507D080C07DF081C0F1
:101138007EF082C07FF01200000187510001D8B410
:1011480011D0000188510001875DD8B012D000018C
:1011580087510008000188250001836F180E0001DF
:10116800836507D07DC07DF07EC07EF07FC07FF0B4
:101178001200060E0001866F00017FAF02D0000149
:10118800868F000182AF02D00001868D00017E8F1C
:10119800FF0E00017D17FF0E00017E17000E0001F3
:1011A8007F170001818FFF0E00018017FF0E0001DD
:1011B8008117000E00018217000187510001885D28
:1011C800D8B025D00001D890803781378237000108
:1011D80087070001885100018719D8B411D0000190
:1011E800860786C083F0070E00018317D8B408D09D
:1011F800E9D70001D8907F337E337D330001882BF7
:101208000001875100018819D8B42BD0F2D700010A
:1012180088510001875DD8B024D00001D8907D376F
:101228007E377F3700018807000188510001871940
:10123800D8B411D00001860786C083F0070E0001DC
:101248008317D8B408D0E9D70001D8908233813306
:1012580080330001872B0001875100018819D8A429
:10126800F3D7000186AF12D0FF0E00017D1BFF0EE1
:1012780000017E1BFF0E00017F1B010E00017D2770
:10128800000E00017E23000E00017F23000186ADC1
:1012980012D0FF0E0001801BFF0E0001811BFF0E04
:1012A8000001821B010E00018027000E000181232E
:1012B800000E00018223000E0001866F00017D519F
:1012C8000001802700017E510001812300017F5128
:1012D80000018223000182AF15D0FF0E0001801BA0
:1012E800FF0E0001811BFF0E0001821B010E000191
:1012F8008027000E00018123000E00018223010EC9
:101308000001866F80C060F081C061F082C062F029
:1013180088C063F086C064F0B7EC0BF060C07DF065
:1013280061C07EF062C07FF0120020C024F0256A00
:10133800266A1F34243601E325802450296E23C0F1
:1013480024F0256A266A2234243601E325802450B5
:10135800286E2950D8B40BD02850295CD8B00ED0AC
:10136800295000082824246E180E246407D021C0B0
:101378001EF022C01FF023C020F012002850D8B45D
:101388000BD02950285CD8B00ED02850000829244A
:10139800246E180E246407D01EC01EF01FC01FF054
:1013A80020C020F01200060E276E20BE278E23BE16
:1013B800278C1F8EFF0E1E16FF0E1F16000E2016FE
:1013C800228EFF0E2116FF0E2216000E231628501D
:1013D800295CD8B01BD0D89021362236233628066F
:1013E80029502818D8B40DD0270627C024F0070E96
:1013F8002416D8B406D0EFD7D89020321F321E3228
:10140800292A28502918D8B41FD0F6D72950285C83
:10141800D8B01AD0D8901E361F3620362906295043
:101428002818D8B40DD0270627C024F0070E241694
:10143800D8B406D0EFD7D890233222322132282AC6
:1014480028502918D8A4F7D727AE0CD0FF0E1E1A9B
:10145800FF0E1F1AFF0E201A010E1E26000E1F2255
:10146800000E202227AC0CD0FF0E211AFF0E221AE4
:10147800FF0E231A010E2126000E2222000E23221F
:10148800000E276E1E5021261F5022222050232294
:1014980023AE0ED0FF0E211AFF0E221AFF0E231ABA
:1014A800010E2126000E2222000E2322010E276E95
:1014B80021C001F022C002F023C003F029C004F0CB
:1014C80027C005F02AEC0DF001C01EF002C01FF085
:1014D80003C020F012006DC071F00001726B736BD5
:1014E80000016C350001713701E37281000171510F
:1014F8000001786F00017851D8A40AD0000E0001CD
:101508006B6F000E00016C6F000E00016D6F120012
:1015180070C071F00001726B736B00016F350001D0
:10152800713701E37281000171510001796F000187
:101538007951D8A40AD0000E00016B6F000E00018B
:101548006C6F000E00016D6F1200000E0001756FC8
:10155800000E0001766F000E0001776F00017951CF
:10156800890F0001785F6DC079F0000170510001AA
:10157800791B800E0001791700016C8FFF0E0001A6
:101588006B17FF0E00016C17000E00016D170001AC
:101598006F8FFF0E00016E17FF0E00016F17000E10
:1015A80000017017180E0001746F0001D89075378C
:1015B8007637773700016E5100016B5D00016F517E
:1015C80000016C590001705100016D59D8A00ED06E
:1015D80000016E5100016B5F00016F5100016C5BEF
:1015E8000001705100016D5B000175810001D89008
:1015F8006B376C376D370001742FD7D775C060F023
:1016080076C061F077C062F078C063F079C064F0AA
:10161800B7EC0BF060C06BF061C06CF062C06DF0AD
:1016280012008BC08DF000018E6B8F6B00018A3524
:1016380000018D3701E38E8100018D510001976F04
:1016480000019751D8A40AD0000E0001896F000E3E
:101658008A6F000E8B6F000E8C6F1200170E000140
:101668008D6F89C08EF08AC08FF08BC090F000011A
:101678008D290001916F05D00001D89090338F33E8
:101688008E330001912FF8D700018E510001926F1F
:1016980000018A8FFF0E00018917FF0E00018A17CB
:1016A800000E00018B17000189510001936F0001A2
:1016B8008A510001946F00018B510001956F000160
:1016C800966B8E0E0001975F000197AF1AD000014C
:1016D8009751800A8F0FD8B00AD0000E0001896F89
:1016E800000E8A6F000E8B6F000E8C6F12000001C7
:1016F800D89096339533943393330001973FF7D7B7
:101708001BD0170E0001976512D0000E0001896FDB
:10171800000E8A6F000E8B6F000E8C6F1200000196
:10172800D89093379437953796370001970700017B
:1017380097510001D8A4F3D7000192510001D8B401
:1017480009D00001961F951F941F936D000E9423D6
:101758009523962393C089F094C08AF095C08BF0A6
:1017680096C08CF01200000163510001D8B408D073
:10177800000160510001611100016211D8A411D06B
:10178800000E0001606F000E0001616F000E000185
:10179800626F12000001632B0001D890623361333D
:1017A8006033000E000160150001656F000E000136
:1017B80061150001666FFE0E000162150001676F7A
:1017C800000165510001661100016711D8B411D0FC
:1017D800E1D70001632B010E00016027000E000114
:1017E8006123000E000162230001D8906233613347
:1017F8006033000E000160150001656F000E0001E6
:1018080061150001666FFF0E000162150001676F28
:10181800000165510001661100016711D8B408D0B4
:10182800D8D7000163070001D89060376137623765
:10183800000161BF04D0020E00016361F2D700010C
:1018480063B102D00001619F0001D89063330001A9
:10185800635100016213000164510001D8B402D041
:101868000001628F60C060F061C061F062C062F028
:1018780012002CC02EF02F6A306A2B342E3601E36A
:101888002F802E50386E3850D8A409D0000E2A6EFA
:10189800000E2B6E000E2C6E000E2D6E1200170E11
:1018A8002E6E2AC02FF02BC030F02CC031F02E281D
:1018B800326E04D0D890313230322F32322EFAD7ED
:1018C8002F50336E2B8EFF0E2A16FF0E2B16000E8E
:1018D8002C162A50346E2B50356E2C50366E376AC3
:1018E8008E0E385E38AE16D03850800A8F0FD8B0BA
:1018F80009D0000E2A6E000E2B6E000E2C6E000E04
:101908002D6E1200D8903732363235323432383EA6
:10191800F9D715D0170E38640FD0000E2A6E000EB6
:101928002B6E000E2C6E000E2D6E1200D8903436E1
:1019380035363636373638063850D8A4F7D73350C8
:10194800D8B408D0371E361E351E346C000E35222A
:101958003622372234C02AF035C02BF036C02CF09E
:1019680037C02DF012000EC012F0136A146A0D343D
:10197800123601E313801250196E1950D8A407D0FB
:10198800000E0C6E000E0D6E000E0E6E120011C0D1
:1019980012F0136A146A1034123601E313801250DD
:1019A8001A6E1A50D8A407D0000E0C6E000E0D6ED9
:1019B800000E0E6E1200000E166E000E176E000E50
:1019C800186E1A50890F195E0EC01AF011501A1AA3
:1019D800800E1A160D8EFF0E0C16FF0E0D16000E39
:1019E8000E16108EFF0E0F16FF0E1016000E111693
:1019F800180E156ED8901636173618360F500C5C20
:101A080010500D5811500E58D8A007D00F500C5E2A
:101A180010500D5A11500E5A1680D8900C360D36AB
:101A28000E36152EE7D716C001F017C002F018C001
:101A380003F019C004F01AC005F02AEC0DF001C03B
:101A48000CF002C00DF003C00EF012000450D8B420
:101A580005D0015002100310D8A40CD0000E016E5E
:101A6800000E026E000E036E1200042AD890033294
:101A780002320132000E0114066E000E0214076EC7
:101A8800FE0E0314086E065007100810D8B40CD0C8
:101A9800ECD7042A010E0126000E0222000E0322B2
:101AA800D890033202320132000E0114066E000E85
:101AB8000214076EFF0E0314086E06500710081074
:101AC800D8B406D0E6D70406D890013602360336D5
:101AD80002BE03D0020E0460F6D704A0029ED8907E
:101AE8000432045003120550D8A4038E01C001F03B
:101AF80002C002F003C003F012000001995105E191
:101B0800830E0001985DD8A005D0000EB36E000EBC
:101B1800B26E41D0000E0001806F800E0001816F0F
:101B2800470E0001826F120E00016E6F030E000156
:101B38006F6F3B0E0001706F98C068F099C069F034
:101B480088EC0FF068C06BF069C06CF06AC06DF08B
:101B58006FEC0AF06BC07AF06CC07BF06DC07CF063
:101B680070EC0FF07AC07DF07BC07EF07CC07FF017
:101B780065EC08F07DC089F07EC08AF07FC08BF0EC
:101B880015EC0BF089C09AF08AC09BF000019B51BC
:101B9800B36E9AC0B2FFB18012000001995105E1FD
:101BA800830E0001985DD8A005D0000ECF6E000E00
:101BB800CE6E41D0000E0001806F800E0001816F53
:101BC800470E0001826F120E00016E6F030E0001B6
:101BD8006F6F3B0E0001706F98C068F099C069F094
:101BE80088EC0FF068C06BF069C06CF06AC06DF0EB
:101BF8006FEC0AF06BC07AF06CC07BF06DC07CF0C3
:101C080070EC0FF07AC07DF07BC07EF07CC07FF076
:101C180065EC08F07DC089F07EC08AF07FC08BF04B
:101C280015EC0BF089C09AF08AC09BF000019B511B
:101C3800CF6E9AC0CEFFCD801200A10E0001985D34
:101C48000F0E00019959D8A005D0000ED76E000ECE
:101C5800D66E41D0000E0001806F800E0001816FAA
:101C6800470E0001826F120E00016E6F830E000195
:101C78006F6F3D0E0001706F98C068F099C069F0F1
:101C880088EC0FF068C06BF069C06CF06AC06DF04A
:101C98006FEC0AF06BC07AF06CC07BF06DC07CF022
:101CA80070EC0FF07AC07DF07BC07EF07CC07FF0D6
:101CB80065EC08F07DC089F07EC08AF07FC08BF0AB
:101CC80015EC0BF089C09AF08AC09BF000019B517B
:101CD800D76E9AC0D6FFD58E12003A5004E1830E13
:101CE800395CD8A005D0000EB36E000EB26E3AD0A3
:101CF800000E216E800E226E470E236E120E0F6E9E
:101D0800030E106E3B0E116E39C009F03AC00AF08E
:101D18009DEC0FF009C00CF00AC00DF00BC00EF0DE
:101D2800B7EC0CF00CC01BF00DC01CF00EC01DF081
:101D3800AFEC0FF01BC01EF01CC01FF01DC020F040
:101D480099EC09F01EC02AF01FC02BF020C02CF01F
:101D58003DEC0CF02AC03BF02BC03CF03C50B36E7D
:101D68003BC0B2FFB18012003A5004E1830E395CE7
:101D7800D8A005D0000ECF6E000ECE6E3AD0000E61
:101D8800216E800E226E470E236E120E0F6E030E0A
:101D9800106E3B0E116E39C009F03AC00AF09DEC86
:101DA8000FF009C00CF00AC00DF00BC00EF0B7EC34
:101DB8000CF00CC01BF00DC01CF00EC01DF0AFECF9
:101DC8000FF01BC01EF01CC01FF01DC020F099ECC6
:101DD80009F01EC02AF01FC02BF020C02CF03DECEB
:101DE8000CF02AC03BF02BC03CF03C50CF6E3BC0FF
:101DF800CEFFCD801200A10E395C0F0E3A58D8A044
:101E080005D0000ED76E000ED66E3AD0000E216EA9
:101E1800800E226E470E236E120E0F6E830E106E0A
:101E28003D0E116E39C009F03AC00AF09DEC0FF072
:101E380009C00CF00AC00DF00BC00EF0B7EC0CF0A6
:101E48000CC01BF00DC01CF00EC01DF0AFEC0FF065
:101E58001BC01EF01CC01FF01DC020F099EC09F03B
:101E68001EC02AF01FC02BF020C02CF03DEC0CF057
:101E78002AC03BF02BC03CF03C50D76E3BC0D6FF8D
:101E8800D58E1200000E8A6E8ACF93FF93CF5CFF27
:101E9800F28CF28E070E0001606F000EE1EC0FF07D
:101EA800000ED1EC0FF0000EC1EC0FF0010E000196
:101EB800996F2C0E986F21EC0EF0000E0001996FAF
:101EC800190E986FD1EC0DF0000E0001996F640E99
:101ED800986F81EC0DF0FFD700017A5100017B115A
:101EE80000017C11D8B409D0000E00017A1B000E45
:101EF80000017B1B800E00017C1B7AC07AF07BC03E
:101F08007BF07CC07CF0120068C060F069C061F0B2
:101F18000001626B8E0E0001636F000E0001646F9A
:101F2800B7EC0BF060C068F061C069F062C06AF09D
:101F3800120009C001F00AC002F0036A8E0E046E96
:101F4800000E056E2AEC0DF001C009F002C00AF07F
:101F580003C00BF012001B501C101D10D8B406D083
:101F6800000E1B1A000E1C1A800E1D1A1BC01BF037
:101F78001CC01CF01DC01DF012000001606FA08283
:101F8800320EB16E000160510001D8B403D0B18E99
:101F9800B19C1200B19EB19C12000001606F9D803F
:101FA800320ECD6E000160510001D8B403D0CD8E41
:101FB800CD9C1200CD9ECD9C12000001616FF28A6B
:101FC80060C0D5FF000161510001D8B402D0D58AA4
:101FD8001200D59A12004B904B92000146EF0FF079
:020000040020DA
:08000000FFFFFFFFFFFFFFFF00
:020000040030CA
:0E00000000255F3FFFD385FF0FC00FE00F40CC
:00000001FF
