:10100000FEEF3EF000486F6C6120437261796F6CB7
:0E10100061206A616A656A696A6F6A7500002C
:107DFC00000EF86E000103EF3FF07CEC3FF0050E37
:107E0C00076E100E086EADEC3FF0FFD701C005F009
:107E1C0002C006F002D0054A062A05C0F6FF06C0CD
:107E2C00F7FF0800F5500009D8A4F5D701C003F0FE
:107E3C0002C004F0031E041E034A042A0550032446
:107E4C00016E06500420026E1200056E110E0460C5
:107E5C0003D0010E056416D0000E1200000E016E48
:107E6C000450800F52EC3FF015D0000E016E045000
:107E7C00C00F52EC3FF00ED0000E016E020E52EC11
:107E8C003FF008D00550000AD8B4E8D7010AD8B49E
:107E9C00ECD7F2D7010E1200036E04D0899009D0F2
:107EAC00898007D00150000AD8B4F8D7010AD8B499
:107EBC00F7D7C7940350F00B8C6E89841A0E026EA0
:107ECC00F80EE82EFED7022EFCD700D0899403388A
:107EDC00F00BF00B8C6E89841A0E026EF80EE82EE5
:107EEC00FED7022EFCD700D089941200000E0F0191
:107EFC005B6F000E0F015E6F000E926E000E896EAE
:107F0C00000E956E000E8C6E89908992200E8C6EF0
:107F1C0089841A0E046EF80EE82EFED7042EFCD7B8
:107F2C0000D08994000E016E280E52EC3FF0000E2A
:107F3C00016E0F0E52EC3FF0000E016E020E52EC71
:107F4C003FF0000E016E010E52EC3FF01200010EDC
:107F5C000D6E07C001F008C002F00CEC3FF00150B0
:107F6C000E6E000E016E020E52EC3FF0000E016E12
:107F7C00010E52EC3FF0000E0B6E000E0C6E000E5C
:107F8C000F6E000E116E010E116401D01200000E66
:107F9C00046E11502BEC3FF00009D8B427D0000E22
:107FAC00106E1CD0010E016E1150100D07C009F09F
:107FBC0008C00AF0F3500926F4500A221050010DA3
:107FCC00F3500926F4500A2209C0F6FF0AC0F7FF45
:107FDC000800F55052EC3FF00F2A102A0E500F5C9F
:107FEC00D8B006D00F0E1064DDD702D0000E0D6E87
:047FFC00112AC9D7A6
:020000040020DA
:08000000FFFFFFFFFFFFFFFF00
:020000040030CA
:0E00000000255F3FFFD385FF0FC00FE00F40CC
:00000001FF
