:10100000E9EF3EF000486F6C6120437261796F6CCC
:0E10100061206A616A656A696A6F6A7500002C
:107DD200000EF86E0001EEEF3EF067EC3FF0050E8C
:107DE200076E100E086E98EC3FF0FFD701C005F049
:107DF20002C006F002D0054A062A05C0F6FF06C0F8
:107E0200F7FF0800F5500009D8A4F5D701C003F028
:107E120002C004F0031E041E034A042A0550032470
:107E2200016E06500420026E1200056E110E0460EF
:107E320003D0010E056416D0000E1200000E016E72
:107E42000450800F3DEC3FF015D0000E016E04503F
:107E5200C00F3DEC3FF00ED0000E016E020E3DEC65
:107E62003FF008D00550000AD8B4E8D7010AD8B4C8
:107E7200ECD7F2D7010E1200036E04D08B9009D01A
:107E82008B8007D00150000AD8B4F8D7010AD8B4C1
:107E9200F7D7C7940350F00B8C6E8B841A0E026EC8
:107EA200F80EE82EFED7022EFCD700D08B940338B2
:107EB200F00BF00B8C6E8B841A0E026EF80EE82E0D
:107EC200FED7022EFCD700D08B941200000E0F01B9
:107ED2005D6F000E0F015E6F000E946E000E8B6ED2
:107EE200000E956E000E8C6E8B908B92200E8C6E17
:107EF2008B841A0E046EF80EE82EFED7042EFCD7E1
:107F020000D08B94000E016E280E3DEC3FF0000E67
:107F1200016E0F0E3DEC3FF0000E016E020E3DECC5
:107F22003FF0000E016E010E3DEC3FF0120007C063
:107F320001F008C002F0F7EC3EF001500D6E000EA9
:107F4200016E020E3DEC3FF0000E016E010E3DECA3
:107F52003FF0000E0B6E000E0C6E000E0E6E000E49
:107F6200106E010E106401D01200000E046E10504B
:107F720016EC3FF00009D8B427D0000E0F6E1CD0CB
:107F8200010E016E1050100D07C009F008C00AF072
:107F9200F3500926F4500A220F50010DF35009261E
:107FA200F4500A2209C0F6FF0AC0F7FF0800F55094
:107FB2003DEC3FF00E2A0F2A0D500E5CD8B01DD0BA
:107FC2000F0E0F64DDD719D0000E016E020E3DECCC
:107FD2003FF0000E016E010E3DEC3FF0000E016E0F
:107FE200450E3DEC3FF0000E016E720E3DEC3FF08F
:0E7FF200000E016E720E3DEC3FF0102AB2D769
:020000040020DA
:08000000FFFFFFFFFFFFFFFF00
:020000040030CA
:0E00000000255F3FFFD385FF0FC00FE00F40CC
:00000001FF
